{
  "address": "0xB7181771024046f92B061c8b5240f8BE4b98Cf91",
  "abi": [
    {
      "inputs": [
        {
          "internalType": "contract SyntheX",
          "name": "_synthex",
          "type": "address"
        },
        {
          "internalType": "address",
          "name": "_pyth",
          "type": "address"
        },
        {
          "internalType": "address",
          "name": "pool",
          "type": "address"
        },
        {
          "internalType": "address[]",
          "name": "assets",
          "type": "address[]"
        },
        {
          "internalType": "bytes32[]",
          "name": "sources",
          "type": "bytes32[]"
        },
        {
          "internalType": "address",
          "name": "fallbackOracle",
          "type": "address"
        },
        {
          "internalType": "address[]",
          "name": "baseCurrency",
          "type": "address[]"
        },
        {
          "internalType": "uint256[]",
          "name": "baseCurrencyUnit",
          "type": "uint256[]"
        }
      ],
      "stateMutability": "payable",
      "type": "constructor"
    },
    {
      "anonymous": false,
      "inputs": [
        {
          "indexed": true,
          "internalType": "address",
          "name": "asset",
          "type": "address"
        },
        {
          "indexed": true,
          "internalType": "bytes32",
          "name": "source",
          "type": "bytes32"
        }
      ],
      "name": "AssetSourceUpdated",
      "type": "event"
    },
    {
      "anonymous": false,
      "inputs": [
        {
          "indexed": true,
          "internalType": "address",
          "name": "baseCurrency",
          "type": "address"
        },
        {
          "indexed": false,
          "internalType": "uint256",
          "name": "baseCurrencyUnit",
          "type": "uint256"
        }
      ],
      "name": "BaseCurrencySet",
      "type": "event"
    },
    {
      "anonymous": false,
      "inputs": [
        {
          "indexed": true,
          "internalType": "address",
          "name": "fallbackOracle",
          "type": "address"
        }
      ],
      "name": "FallbackOracleUpdated",
      "type": "event"
    },
    {
      "anonymous": false,
      "inputs": [
        {
          "indexed": true,
          "internalType": "bytes32",
          "name": "role",
          "type": "bytes32"
        },
        {
          "indexed": true,
          "internalType": "bytes32",
          "name": "previousAdminRole",
          "type": "bytes32"
        },
        {
          "indexed": true,
          "internalType": "bytes32",
          "name": "newAdminRole",
          "type": "bytes32"
        }
      ],
      "name": "RoleAdminChanged",
      "type": "event"
    },
    {
      "anonymous": false,
      "inputs": [
        {
          "indexed": true,
          "internalType": "bytes32",
          "name": "role",
          "type": "bytes32"
        },
        {
          "indexed": true,
          "internalType": "address",
          "name": "account",
          "type": "address"
        },
        {
          "indexed": true,
          "internalType": "address",
          "name": "sender",
          "type": "address"
        }
      ],
      "name": "RoleGranted",
      "type": "event"
    },
    {
      "anonymous": false,
      "inputs": [
        {
          "indexed": true,
          "internalType": "bytes32",
          "name": "role",
          "type": "bytes32"
        },
        {
          "indexed": true,
          "internalType": "address",
          "name": "account",
          "type": "address"
        },
        {
          "indexed": true,
          "internalType": "address",
          "name": "sender",
          "type": "address"
        }
      ],
      "name": "RoleRevoked",
      "type": "event"
    },
    {
      "inputs": [
        {
          "internalType": "address",
          "name": "",
          "type": "address"
        }
      ],
      "name": "BASE_CURRENCYS",
      "outputs": [
        {
          "internalType": "uint256",
          "name": "",
          "type": "uint256"
        }
      ],
      "stateMutability": "view",
      "type": "function"
    },
    {
      "inputs": [],
      "name": "DEFAULT_ADMIN_ROLE",
      "outputs": [
        {
          "internalType": "bytes32",
          "name": "",
          "type": "bytes32"
        }
      ],
      "stateMutability": "view",
      "type": "function"
    },
    {
      "inputs": [],
      "name": "IS_PYTH_ORACLE",
      "outputs": [
        {
          "internalType": "bool",
          "name": "",
          "type": "bool"
        }
      ],
      "stateMutability": "view",
      "type": "function"
    },
    {
      "inputs": [
        {
          "internalType": "address",
          "name": "",
          "type": "address"
        }
      ],
      "name": "assetsSources",
      "outputs": [
        {
          "internalType": "bytes32",
          "name": "",
          "type": "bytes32"
        }
      ],
      "stateMutability": "view",
      "type": "function"
    },
    {
      "inputs": [
        {
          "internalType": "address",
          "name": "asset",
          "type": "address"
        }
      ],
      "name": "getAssetPrice",
      "outputs": [
        {
          "internalType": "uint256",
          "name": "",
          "type": "uint256"
        }
      ],
      "stateMutability": "view",
      "type": "function"
    },
    {
      "inputs": [
        {
          "internalType": "address[]",
          "name": "assets",
          "type": "address[]"
        }
      ],
      "name": "getAssetsPrices",
      "outputs": [
        {
          "internalType": "uint256[]",
          "name": "",
          "type": "uint256[]"
        }
      ],
      "stateMutability": "view",
      "type": "function"
    },
    {
      "inputs": [],
      "name": "getFallbackOracle",
      "outputs": [
        {
          "internalType": "address",
          "name": "",
          "type": "address"
        }
      ],
      "stateMutability": "view",
      "type": "function"
    },
    {
      "inputs": [
        {
          "internalType": "bytes32",
          "name": "role",
          "type": "bytes32"
        }
      ],
      "name": "getRoleAdmin",
      "outputs": [
        {
          "internalType": "bytes32",
          "name": "",
          "type": "bytes32"
        }
      ],
      "stateMutability": "view",
      "type": "function"
    },
    {
      "inputs": [
        {
          "internalType": "address",
          "name": "asset",
          "type": "address"
        }
      ],
      "name": "getSourceOfAsset",
      "outputs": [
        {
          "internalType": "bytes32",
          "name": "",
          "type": "bytes32"
        }
      ],
      "stateMutability": "view",
      "type": "function"
    },
    {
      "inputs": [
        {
          "internalType": "bytes32",
          "name": "role",
          "type": "bytes32"
        },
        {
          "internalType": "address",
          "name": "account",
          "type": "address"
        }
      ],
      "name": "grantRole",
      "outputs": [],
      "stateMutability": "nonpayable",
      "type": "function"
    },
    {
      "inputs": [
        {
          "internalType": "bytes32",
          "name": "role",
          "type": "bytes32"
        },
        {
          "internalType": "address",
          "name": "account",
          "type": "address"
        }
      ],
      "name": "hasRole",
      "outputs": [
        {
          "internalType": "bool",
          "name": "",
          "type": "bool"
        }
      ],
      "stateMutability": "view",
      "type": "function"
    },
    {
      "inputs": [
        {
          "internalType": "bytes32",
          "name": "role",
          "type": "bytes32"
        },
        {
          "internalType": "address",
          "name": "account",
          "type": "address"
        }
      ],
      "name": "renounceRole",
      "outputs": [],
      "stateMutability": "nonpayable",
      "type": "function"
    },
    {
      "inputs": [
        {
          "internalType": "bytes32",
          "name": "role",
          "type": "bytes32"
        },
        {
          "internalType": "address",
          "name": "account",
          "type": "address"
        }
      ],
      "name": "revokeRole",
      "outputs": [],
      "stateMutability": "nonpayable",
      "type": "function"
    },
    {
      "inputs": [
        {
          "internalType": "address[]",
          "name": "assets",
          "type": "address[]"
        },
        {
          "internalType": "bytes32[]",
          "name": "sources",
          "type": "bytes32[]"
        }
      ],
      "name": "setAssetSources",
      "outputs": [],
      "stateMutability": "nonpayable",
      "type": "function"
    },
    {
      "inputs": [
        {
          "internalType": "address",
          "name": "fallbackOracle",
          "type": "address"
        }
      ],
      "name": "setFallbackOracle",
      "outputs": [],
      "stateMutability": "nonpayable",
      "type": "function"
    },
    {
      "inputs": [
        {
          "internalType": "bytes4",
          "name": "interfaceId",
          "type": "bytes4"
        }
      ],
      "name": "supportsInterface",
      "outputs": [
        {
          "internalType": "bool",
          "name": "",
          "type": "bool"
        }
      ],
      "stateMutability": "view",
      "type": "function"
    },
    {
      "inputs": [],
      "name": "synthex",
      "outputs": [
        {
          "internalType": "contract SyntheX",
          "name": "",
          "type": "address"
        }
      ],
      "stateMutability": "view",
      "type": "function"
    },
    {
      "inputs": [
        {
          "internalType": "address[]",
          "name": "assets",
          "type": "address[]"
        },
        {
          "internalType": "uint256[]",
          "name": "sources",
          "type": "uint256[]"
        }
      ],
      "name": "updateBaseCurrencies",
      "outputs": [],
      "stateMutability": "nonpayable",
      "type": "function"
    },
    {
      "inputs": [
        {
          "internalType": "bytes[]",
          "name": "pythUpdateData",
          "type": "bytes[]"
        }
      ],
      "name": "updatePrices",
      "outputs": [],
      "stateMutability": "nonpayable",
      "type": "function"
    },
    {
      "stateMutability": "payable",
      "type": "receive"
    }
  ],
  "transactionHash": "0xdc0d9c88b89308486ed5a7ce0f2fb772871879c7fb476692f1e18f41e683b6bb",
  "args": [
    "0xB9FE95aE8cD2964174c3589C1bFb360A3D1de9Dc",
    "0xA2aa501b19aff244D90cc15a4Cf739D2725B5729",
    "0x0000000000000000000000000000000000000000",
    [
      "0xe70733321d6902fe6780e2e2d221d2c466a43a9c",
      "0x4398c702b845584fca3adbbf1738f2c3cfb9fb5b",
      "0x5536f3b573d99e5a0a586c79ac3c60b445a76639",
      "0xbcc4b49b5c75340c52f7e427302bd5e38363f09f",
      "0x0134369386a3aebcf0704946c0df89fe78fa2b50",
      "0x55f317247632d42584848064a0cc0190fe1f6c58",
      "0x43d9c2dec2a83079641feafdabc4719bb362aacf"
    ],
    [
      "0xf9c0172ba10dfa4d19088d94f5bf61d3b54d5bd7483a322a982e1373ee8ea31b",
      "0xca80ba6dc32e08d06f1aa886011eed1d77c77be9eb761cc10d72b7d0a2fd57a6",
      "0xafcc9a5bb5eefd55e12b6f0b4c8e6bccf72b785134ee232a5d175afd082e8832",
      "0xabb1a3382ab1c96282e4ee8c847acc0efdb35f0564924b35f3246e8f401b2a3d",
      "0x41f3625971ca2ed2263e78573fe5ce23e13d2558ed3f2e47ab0f84fb9e7ae722",
      "0x0e9ec6a3f2fba0a3df73db71c84d736b8fc1970577639c9456a2fee0c8f66d93",
      "0xca80ba6dc32e08d06f1aa886011eed1d77c77be9eb761cc10d72b7d0a2fd57a6"
    ],
    "0x5292Fb351C82e29582e47eE7F0C5AbD327149145",
    [
      "0xe49b5e1a76a9a081ca6be9ac31df63afc1814e2e",
      "0x1561ccba861ee39552da5d703b629b1b23ee1899"
    ],
    [
      "100000000",
      "100000000"
    ]
  ],
  "numDeployments": 1,
  "solcInputHash": "03089d363124bb686fab74c81cfa5f2a",
  "bytecode": "0x60a060405260405162002b3c38038062002b3c833981016040819052620000269162000592565b6001600160a01b03888116608052600180546001600160a01b031916918916919091179055620000777f74b366a297145849fa9687e16ecad1e3a60cf84f6c2256ae73e20a9f7666980487620000a8565b620000828362000149565b6200008e858562000193565b6200009a8282620002d6565b50505050505050506200072f565b6000828152602081815260408083206001600160a01b038516845290915290205460ff1662000145576000828152602081815260408083206001600160a01b03851684529091529020805460ff19166001179055620001043390565b6001600160a01b0316816001600160a01b0316837f2f8788117e7eff1d82e926ec794901d17c78024a50270940304540a733656f0d60405160405180910390a45b5050565b600380546001600160a01b0319166001600160a01b0383169081179091556040517fce7a780d33665b1ea097af5f155e3821b809ecbaa839d3b33aa83ba28168cefb90600090a250565b805182511460405180604001604052806002815260200161313360f01b81525090620001dd5760405162461bcd60e51b8152600401620001d4919062000697565b60405180910390fd5b5060005b8251811015620002d157818181518110620002005762000200620006ef565b602002602001015160026000858481518110620002215762000221620006ef565b60200260200101516001600160a01b03166001600160a01b0316815260200190815260200160002081905550818181518110620002625762000262620006ef565b60200260200101518382815181106200027f576200027f620006ef565b60200260200101516001600160a01b03167fdcb94a871091cc58901744f251f3df654c2e3c2a5745ed991e2e2457255324b960405160405180910390a380620002c88162000705565b915050620001e1565b505050565b805182511460405180604001604052806002815260200161313360f01b81525090620003175760405162461bcd60e51b8152600401620001d4919062000697565b5060005b8251811015620002d1578181815181106200033a576200033a620006ef565b6020026020010151600460008584815181106200035b576200035b620006ef565b60200260200101516001600160a01b03166001600160a01b03168152602001908152602001600020819055508281815181106200039c576200039c620006ef565b60200260200101516001600160a01b03167fe27c4c1372396a3d15a9922f74f9dfc7c72b1ad6d63868470787249c356454c1838381518110620003e357620003e3620006ef565b6020026020010151604051620003fb91815260200190565b60405180910390a2806200040f8162000705565b9150506200031b565b6001600160a01b03811681146200042e57600080fd5b50565b80516200043e8162000418565b919050565b634e487b7160e01b600052604160045260246000fd5b604051601f8201601f191681016001600160401b038111828210171562000484576200048462000443565b604052919050565b60006001600160401b03821115620004a857620004a862000443565b5060051b60200190565b600082601f830112620004c457600080fd5b81516020620004dd620004d7836200048c565b62000459565b82815260059290921b84018101918181019086841115620004fd57600080fd5b8286015b8481101562000525578051620005178162000418565b835291830191830162000501565b509695505050505050565b600082601f8301126200054257600080fd5b8151602062000555620004d7836200048c565b82815260059290921b840181019181810190868411156200057557600080fd5b8286015b8481101562000525578051835291830191830162000579565b600080600080600080600080610100898b031215620005b057600080fd5b620005bb8962000431565b9750620005cb60208a0162000431565b9650620005db60408a0162000431565b60608a01519096506001600160401b0380821115620005f957600080fd5b620006078c838d01620004b2565b965060808b01519150808211156200061e57600080fd5b6200062c8c838d0162000530565b95506200063c60a08c0162000431565b945060c08b01519150808211156200065357600080fd5b620006618c838d01620004b2565b935060e08b01519150808211156200067857600080fd5b50620006878b828c0162000530565b9150509295985092959890939650565b600060208083528351808285015260005b81811015620006c657858101830151858201604001528201620006a8565b81811115620006d9576000604083870101525b50601f01601f1916929092016040019392505050565b634e487b7160e01b600052603260045260246000fd5b60006000198214156200072857634e487b7160e01b600052601160045260246000fd5b5060010190565b6080516123d562000767600039600081816103ea015281816106bf015281816107f10152818161091c0152610af201526123d56000f3fe6080604052600436106101485760003560e01c80636210308c116100c0578063a301f68411610074578063b4458df411610059578063b4458df41461042c578063ca77851e14610459578063d547741f1461046e57600080fd5b8063a301f684146103d8578063b3596f071461040c57600080fd5b806392bf2be0116100a557806392bf2be0146103535780639d23d9f214610396578063a217fddf146103c357600080fd5b80636210308c146102b657806391d148541461030257600080fd5b8063248a9ca3116101175780632f2ff15d116100fc5780632f2ff15d1461025657806336568abe14610276578063574b5c331461029657600080fd5b8063248a9ca3146101eb5780632f1c2dd51461022957600080fd5b806301ffc9a7146101545780630a4ccbeb14610189578063170aee73146101ab5780631abfb6bb146101cb57600080fd5b3661014f57005b600080fd5b34801561016057600080fd5b5061017461016f36600461197f565b61048e565b60405190151581526020015b60405180910390f35b34801561019557600080fd5b506101a96101a4366004611a0d565b610527565b005b3480156101b757600080fd5b506101a96101c6366004611a78565b610691565b3480156101d757600080fd5b506101a96101e6366004611ba0565b6107c3565b3480156101f757600080fd5b5061021b610206366004611c60565b60009081526020819052604090206001015490565b604051908152602001610180565b34801561023557600080fd5b5061021b610244366004611a78565b60046020526000908152604090205481565b34801561026257600080fd5b506101a9610271366004611c79565b6108ee565b34801561028257600080fd5b506101a9610291366004611c79565b610a15565b3480156102a257600080fd5b506101a96102b1366004611ca5565b610ac4565b3480156102c257600080fd5b5060035473ffffffffffffffffffffffffffffffffffffffff165b60405173ffffffffffffffffffffffffffffffffffffffff9091168152602001610180565b34801561030e57600080fd5b5061017461031d366004611c79565b60009182526020828152604080842073ffffffffffffffffffffffffffffffffffffffff93909316845291905290205460ff1690565b34801561035f57600080fd5b5061021b61036e366004611a78565b73ffffffffffffffffffffffffffffffffffffffff1660009081526002602052604090205490565b3480156103a257600080fd5b506103b66103b1366004611a0d565b610c54565b6040516101809190611d11565b3480156103cf57600080fd5b5061021b600081565b3480156103e457600080fd5b506102dd7f000000000000000000000000000000000000000000000000000000000000000081565b34801561041857600080fd5b5061021b610427366004611a78565b610d09565b34801561043857600080fd5b5061021b610447366004611a78565b60026020526000908152604090205481565b34801561046557600080fd5b50610174600181565b34801561047a57600080fd5b506101a9610489366004611c79565b610f59565b60007fffffffff0000000000000000000000000000000000000000000000000000000082167f7965db0b00000000000000000000000000000000000000000000000000000000148061052157507f01ffc9a7000000000000000000000000000000000000000000000000000000007fffffffff000000000000000000000000000000000000000000000000000000008316145b92915050565b6001546040517fd47eed4500000000000000000000000000000000000000000000000000000000815260009173ffffffffffffffffffffffffffffffffffffffff169063d47eed45906105809086908690600401611d9e565b602060405180830381865afa15801561059d573d6000803e3d6000fd5b505050506040513d601f19601f820116820180604052508101906105c19190611e74565b6001546040517fef9e5e2800000000000000000000000000000000000000000000000000000000815291925073ffffffffffffffffffffffffffffffffffffffff169063ef9e5e2890839061061c9087908790600401611d9e565b6000604051808303818588803b15801561063557600080fd5b505af1158015610649573d6000803e3d6000fd5b505050505061068c6040518060400160405280600b81526020017f7072696365557064617465000000000000000000000000000000000000000000815250610f7e565b505050565b6040517fd9defd830000000000000000000000000000000000000000000000000000000081523360048201527f000000000000000000000000000000000000000000000000000000000000000073ffffffffffffffffffffffffffffffffffffffff169063d9defd8390602401602060405180830381865afa15801561071b573d6000803e3d6000fd5b505050506040513d601f19601f8201168201806040525081019061073f9190611e8d565b6040518060400160405280600181526020017f3200000000000000000000000000000000000000000000000000000000000000815250906107b6576040517f08c379a00000000000000000000000000000000000000000000000000000000081526004016107ad9190611edb565b60405180910390fd5b506107c08161100d565b50565b6040517fd9defd830000000000000000000000000000000000000000000000000000000081523360048201527f000000000000000000000000000000000000000000000000000000000000000073ffffffffffffffffffffffffffffffffffffffff169063d9defd8390602401602060405180830381865afa15801561084d573d6000803e3d6000fd5b505050506040513d601f19601f820116820180604052508101906108719190611e8d565b6040518060400160405280600181526020017f3200000000000000000000000000000000000000000000000000000000000000815250906108df576040517f08c379a00000000000000000000000000000000000000000000000000000000081526004016107ad9190611edb565b506108ea828261107c565b5050565b6040517fd9defd830000000000000000000000000000000000000000000000000000000081523360048201527f000000000000000000000000000000000000000000000000000000000000000073ffffffffffffffffffffffffffffffffffffffff169063d9defd8390602401602060405180830381865afa158015610978573d6000803e3d6000fd5b505050506040513d601f19601f8201168201806040525081019061099c9190611e8d565b6040518060400160405280600181526020017f320000000000000000000000000000000000000000000000000000000000000081525090610a0a576040517f08c379a00000000000000000000000000000000000000000000000000000000081526004016107ad9190611edb565b506108ea8282611206565b73ffffffffffffffffffffffffffffffffffffffff81163314610aba576040517f08c379a000000000000000000000000000000000000000000000000000000000815260206004820152602f60248201527f416363657373436f6e74726f6c3a2063616e206f6e6c792072656e6f756e636560448201527f20726f6c657320666f722073656c66000000000000000000000000000000000060648201526084016107ad565b6108ea8282611210565b6040517fd9defd830000000000000000000000000000000000000000000000000000000081523360048201527f000000000000000000000000000000000000000000000000000000000000000073ffffffffffffffffffffffffffffffffffffffff169063d9defd8390602401602060405180830381865afa158015610b4e573d6000803e3d6000fd5b505050506040513d601f19601f82011682018060405250810190610b729190611e8d565b6040518060400160405280600181526020017f320000000000000000000000000000000000000000000000000000000000000081525090610be0576040517f08c379a00000000000000000000000000000000000000000000000000000000081526004016107ad9190611edb565b50610c4e848480806020026020016040519081016040528093929190818152602001838360200280828437600092019190915250506040805160208088028281018201909352878252909350879250869182918501908490808284376000920191909152506112c792505050565b50505050565b606060008267ffffffffffffffff811115610c7157610c71611a93565b604051908082528060200260200182016040528015610c9a578160200160208202803683370190505b50905060005b83811015610d0157610cd2858583818110610cbd57610cbd611f2c565b90506020020160208101906104279190611a78565b828281518110610ce457610ce4611f2c565b602090810291909101015280610cf981611f8a565b915050610ca0565b509392505050565b73ffffffffffffffffffffffffffffffffffffffff8116600090815260026020908152604080832054600490925282205415610d6957505073ffffffffffffffffffffffffffffffffffffffff1660009081526004602052604090205490565b80610e09576003546040517fb3596f0700000000000000000000000000000000000000000000000000000000815273ffffffffffffffffffffffffffffffffffffffff85811660048301529091169063b3596f0790602401602060405180830381865afa158015610dde573d6000803e3d6000fd5b505050506040513d601f19601f82011682018060405250810190610e029190611e74565b9392505050565b6001546040517f96834ad30000000000000000000000000000000000000000000000000000000081526004810183905260009173ffffffffffffffffffffffffffffffffffffffff16906396834ad390602401608060405180830381865afa158015610e79573d6000803e3d6000fd5b505050506040513d601f19601f82011682018060405250810190610e9d9190611fc3565b90506000610eac826008611445565b90508015610ebc57949350505050565b6003546040517fb3596f0700000000000000000000000000000000000000000000000000000000815273ffffffffffffffffffffffffffffffffffffffff87811660048301529091169063b3596f0790602401602060405180830381865afa158015610f2c573d6000803e3d6000fd5b505050506040513d601f19601f82011682018060405250810190610f509190611e74565b95945050505050565b600082815260208190526040902060010154610f748161154a565b61068c8383611210565b6107c081604051602401610f929190611edb565b604080517fffffffffffffffffffffffffffffffffffffffffffffffffffffffffffffffe08184030181529190526020810180517bffffffffffffffffffffffffffffffffffffffffffffffffffffffff167f41304fac00000000000000000000000000000000000000000000000000000000179052611554565b600380547fffffffffffffffffffffffff00000000000000000000000000000000000000001673ffffffffffffffffffffffffffffffffffffffff83169081179091556040517fce7a780d33665b1ea097af5f155e3821b809ecbaa839d3b33aa83ba28168cefb90600090a250565b80518251146040518060400160405280600281526020017f3133000000000000000000000000000000000000000000000000000000000000815250906110ef576040517f08c379a00000000000000000000000000000000000000000000000000000000081526004016107ad9190611edb565b5060005b825181101561068c5781818151811061110e5761110e611f2c565b60200260200101516004600085848151811061112c5761112c611f2c565b602002602001015173ffffffffffffffffffffffffffffffffffffffff1673ffffffffffffffffffffffffffffffffffffffff1681526020019081526020016000208190555082818151811061118457611184611f2c565b602002602001015173ffffffffffffffffffffffffffffffffffffffff167fe27c4c1372396a3d15a9922f74f9dfc7c72b1ad6d63868470787249c356454c18383815181106111d5576111d5611f2c565b60200260200101516040516111ec91815260200190565b60405180910390a2806111fe81611f8a565b9150506110f3565b6108ea8282611575565b60008281526020818152604080832073ffffffffffffffffffffffffffffffffffffffff8516845290915290205460ff16156108ea5760008281526020818152604080832073ffffffffffffffffffffffffffffffffffffffff8516808552925280832080547fffffffffffffffffffffffffffffffffffffffffffffffffffffffffffffff0016905551339285917ff6391f5c32d9c69d2a47ea670b442974b53935d1edc7fd64eb21e047a839171b9190a45050565b80518251146040518060400160405280600281526020017f31330000000000000000000000000000000000000000000000000000000000008152509061133a576040517f08c379a00000000000000000000000000000000000000000000000000000000081526004016107ad9190611edb565b5060005b825181101561068c5781818151811061135957611359611f2c565b60200260200101516002600085848151811061137757611377611f2c565b602002602001015173ffffffffffffffffffffffffffffffffffffffff1673ffffffffffffffffffffffffffffffffffffffff168152602001908152602001600020819055508181815181106113cf576113cf611f2c565b60200260200101518382815181106113e9576113e9611f2c565b602002602001015173ffffffffffffffffffffffffffffffffffffffff167fdcb94a871091cc58901744f251f3df654c2e3c2a5745ed991e2e2457255324b960405160405180910390a38061143d81611f8a565b91505061133e565b600080836000015160070b128061146357506000836040015160030b135b8061149457507fffffffffffffffffffffffffffffffffffffffffffffffffffffffffffffff01836040015160030b125b1561149e57600080fd5b600083604001517fffffffffffffffffffffffffffffffffffffffffffffffffffffffffffffffff6114d0919061205a565b905060006114de8285612104565b60ff161061151c576114f08184612104565b6114fe9060ff16600a612247565b8451611514919067ffffffffffffffff16612259565b915050610521565b6115268382612104565b6115349060ff16600a612247565b8451611514919067ffffffffffffffff16612296565b6107c08133611665565b80516a636f6e736f6c652e6c6f67602083016000808483855afa5050505050565b60008281526020818152604080832073ffffffffffffffffffffffffffffffffffffffff8516845290915290205460ff166108ea5760008281526020818152604080832073ffffffffffffffffffffffffffffffffffffffff85168452909152902080547fffffffffffffffffffffffffffffffffffffffffffffffffffffffffffffff001660011790556116073390565b73ffffffffffffffffffffffffffffffffffffffff168173ffffffffffffffffffffffffffffffffffffffff16837f2f8788117e7eff1d82e926ec794901d17c78024a50270940304540a733656f0d60405160405180910390a45050565b60008281526020818152604080832073ffffffffffffffffffffffffffffffffffffffff8516845290915290205460ff166108ea576116a38161171d565b6116ae83602061173c565b6040516020016116bf9291906122d1565b604080517fffffffffffffffffffffffffffffffffffffffffffffffffffffffffffffffe0818403018152908290527f08c379a00000000000000000000000000000000000000000000000000000000082526107ad91600401611edb565b606061052173ffffffffffffffffffffffffffffffffffffffff831660145b6060600061174b836002612259565b611756906002612352565b67ffffffffffffffff81111561176e5761176e611a93565b6040519080825280601f01601f191660200182016040528015611798576020820181803683370190505b5090507f3000000000000000000000000000000000000000000000000000000000000000816000815181106117cf576117cf611f2c565b60200101907effffffffffffffffffffffffffffffffffffffffffffffffffffffffffffff1916908160001a9053507f78000000000000000000000000000000000000000000000000000000000000008160018151811061183257611832611f2c565b60200101907effffffffffffffffffffffffffffffffffffffffffffffffffffffffffffff1916908160001a905350600061186e846002612259565b611879906001612352565b90505b6001811115611916577f303132333435363738396162636465660000000000000000000000000000000085600f16601081106118ba576118ba611f2c565b1a60f81b8282815181106118d0576118d0611f2c565b60200101907effffffffffffffffffffffffffffffffffffffffffffffffffffffffffffff1916908160001a90535060049490941c9361190f8161236a565b905061187c565b508315610e02576040517f08c379a000000000000000000000000000000000000000000000000000000000815260206004820181905260248201527f537472696e67733a20686578206c656e67746820696e73756666696369656e7460448201526064016107ad565b60006020828403121561199157600080fd5b81357fffffffff0000000000000000000000000000000000000000000000000000000081168114610e0257600080fd5b60008083601f8401126119d357600080fd5b50813567ffffffffffffffff8111156119eb57600080fd5b6020830191508360208260051b8501011115611a0657600080fd5b9250929050565b60008060208385031215611a2057600080fd5b823567ffffffffffffffff811115611a3757600080fd5b611a43858286016119c1565b90969095509350505050565b803573ffffffffffffffffffffffffffffffffffffffff81168114611a7357600080fd5b919050565b600060208284031215611a8a57600080fd5b610e0282611a4f565b7f4e487b7100000000000000000000000000000000000000000000000000000000600052604160045260246000fd5b604051601f82017fffffffffffffffffffffffffffffffffffffffffffffffffffffffffffffffe016810167ffffffffffffffff81118282101715611b0957611b09611a93565b604052919050565b600067ffffffffffffffff821115611b2b57611b2b611a93565b5060051b60200190565b600082601f830112611b4657600080fd5b81356020611b5b611b5683611b11565b611ac2565b82815260059290921b84018101918181019086841115611b7a57600080fd5b8286015b84811015611b955780358352918301918301611b7e565b509695505050505050565b60008060408385031215611bb357600080fd5b823567ffffffffffffffff80821115611bcb57600080fd5b818501915085601f830112611bdf57600080fd5b81356020611bef611b5683611b11565b82815260059290921b84018101918181019089841115611c0e57600080fd5b948201945b83861015611c3357611c2486611a4f565b82529482019490820190611c13565b96505086013592505080821115611c4957600080fd5b50611c5685828601611b35565b9150509250929050565b600060208284031215611c7257600080fd5b5035919050565b60008060408385031215611c8c57600080fd5b82359150611c9c60208401611a4f565b90509250929050565b60008060008060408587031215611cbb57600080fd5b843567ffffffffffffffff80821115611cd357600080fd5b611cdf888389016119c1565b90965094506020870135915080821115611cf857600080fd5b50611d05878288016119c1565b95989497509550505050565b6020808252825182820181905260009190848201906040850190845b81811015611d4957835183529284019291840191600101611d2d565b50909695505050505050565b8183528181602085013750600060208284010152600060207fffffffffffffffffffffffffffffffffffffffffffffffffffffffffffffffe0601f840116840101905092915050565b60208082528181018390526000906040600585901b8401810190840186845b87811015611e67577fffffffffffffffffffffffffffffffffffffffffffffffffffffffffffffffc087850301835281357fffffffffffffffffffffffffffffffffffffffffffffffffffffffffffffffe18a3603018112611e1e57600080fd5b8901803567ffffffffffffffff811115611e3757600080fd5b8036038b1315611e4657600080fd5b611e538682898501611d55565b955050509184019190840190600101611dbd565b5091979650505050505050565b600060208284031215611e8657600080fd5b5051919050565b600060208284031215611e9f57600080fd5b81518015158114610e0257600080fd5b60005b83811015611eca578181015183820152602001611eb2565b83811115610c4e5750506000910152565b6020815260008251806020840152611efa816040850160208701611eaf565b601f017fffffffffffffffffffffffffffffffffffffffffffffffffffffffffffffffe0169190910160400192915050565b7f4e487b7100000000000000000000000000000000000000000000000000000000600052603260045260246000fd5b7f4e487b7100000000000000000000000000000000000000000000000000000000600052601160045260246000fd5b60007fffffffffffffffffffffffffffffffffffffffffffffffffffffffffffffffff821415611fbc57611fbc611f5b565b5060010190565b600060808284031215611fd557600080fd5b6040516080810167ffffffffffffffff8282108183111715611ff957611ff9611a93565b81604052845191508160070b821461201057600080fd5b908252602084015190808216821461202757600080fd5b5060208201526040830151600381900b811461204257600080fd5b60408201526060928301519281019290925250919050565b60008160030b8360030b637fffffff60008213600084138383048511828216161561208757612087611f5b565b7fffffffffffffffffffffffffffffffffffffffffffffffffffffffff8000000060008512868205861281841616156120c2576120c2611f5b565b600087129250858205871284841616156120de576120de611f5b565b858505871281841616156120f4576120f4611f5b565b5050509290910295945050505050565b600060ff821660ff84168082101561211e5761211e611f5b565b90039392505050565b600181815b8085111561218057817fffffffffffffffffffffffffffffffffffffffffffffffffffffffffffffffff0482111561216657612166611f5b565b8085161561217357918102915b93841c939080029061212c565b509250929050565b60008261219757506001610521565b816121a457506000610521565b81600181146121ba57600281146121c4576121e0565b6001915050610521565b60ff8411156121d5576121d5611f5b565b50506001821b610521565b5060208310610133831016604e8410600b8410161715612203575081810a610521565b61220d8383612127565b807fffffffffffffffffffffffffffffffffffffffffffffffffffffffffffffffff0482111561223f5761223f611f5b565b029392505050565b6000610e0263ffffffff841683612188565b6000817fffffffffffffffffffffffffffffffffffffffffffffffffffffffffffffffff048311821515161561229157612291611f5b565b500290565b6000826122cc577f4e487b7100000000000000000000000000000000000000000000000000000000600052601260045260246000fd5b500490565b7f416363657373436f6e74726f6c3a206163636f756e7420000000000000000000815260008351612309816017850160208801611eaf565b7f206973206d697373696e6720726f6c65200000000000000000000000000000006017918401918201528351612346816028840160208801611eaf565b01602801949350505050565b6000821982111561236557612365611f5b565b500190565b60008161237957612379611f5b565b507fffffffffffffffffffffffffffffffffffffffffffffffffffffffffffffffff019056fea26469706673582212203cc0f1bdf5fe7aebc442525060c76db4120aa0a0c948128dd88a554d072e447964736f6c634300080a0033",
  "devdoc": {
    "author": "Aave",
    "kind": "dev",
    "methods": {
      "constructor": {
        "params": {
          "_synthex": "The address of the new System",
          "assets": "The addresses of the assets",
          "baseCurrency": "The base currency used for the price quotes. If USD is used, base currency is 0x0",
          "baseCurrencyUnit": "The unit of the base currency",
          "fallbackOracle": "The address of the fallback oracle to use if the data of an        aggregator is not consistent",
          "sources": "The address of the source of each asset"
        }
      },
      "getAssetPrice(address)": {
        "params": {
          "asset": "The address of the asset"
        },
        "returns": {
          "_0": "The price of the asset"
        }
      },
      "getAssetsPrices(address[])": {
        "params": {
          "assets": "The list of assets addresses"
        },
        "returns": {
          "_0": "The prices of the given assets"
        }
      },
      "getFallbackOracle()": {
        "returns": {
          "_0": "The address of the fallback oracle"
        }
      },
      "getRoleAdmin(bytes32)": {
        "details": "Returns the admin role that controls `role`. See {grantRole} and {revokeRole}. To change a role's admin, use {_setRoleAdmin}."
      },
      "getSourceOfAsset(address)": {
        "params": {
          "asset": "The address of the asset"
        },
        "returns": {
          "_0": "The address of the source"
        }
      },
      "grantRole(bytes32,address)": {
        "details": "Grants `role` to `account`. If `account` had not been already granted `role`, emits a {RoleGranted} event. Requirements: - the caller must have ``role``'s admin role. May emit a {RoleGranted} event."
      },
      "hasRole(bytes32,address)": {
        "details": "Returns `true` if `account` has been granted `role`."
      },
      "renounceRole(bytes32,address)": {
        "details": "Revokes `role` from the calling account. Roles are often managed via {grantRole} and {revokeRole}: this function's purpose is to provide a mechanism for accounts to lose their privileges if they are compromised (such as when a trusted device is misplaced). If the calling account had been revoked `role`, emits a {RoleRevoked} event. Requirements: - the caller must be `account`. May emit a {RoleRevoked} event."
      },
      "revokeRole(bytes32,address)": {
        "details": "Revokes `role` from `account`. If `account` had been granted `role`, emits a {RoleRevoked} event. Requirements: - the caller must have ``role``'s admin role. May emit a {RoleRevoked} event."
      },
      "setAssetSources(address[],bytes32[])": {
        "params": {
          "assets": "The addresses of the assets",
          "sources": "The addresses of the price sources"
        }
      },
      "setFallbackOracle(address)": {
        "params": {
          "fallbackOracle": "The address of the fallback oracle"
        }
      },
      "supportsInterface(bytes4)": {
        "details": "See {IERC165-supportsInterface}."
      },
      "updateBaseCurrencies(address[],uint256[])": {
        "params": {
          "assets": "The asset need to add or delete",
          "sources": "The source uint, 0 for delete"
        }
      }
    },
    "title": "PriceOracle",
    "version": 1
  },
  "userdoc": {
    "kind": "user",
    "methods": {
      "constructor": {
        "notice": "Constructor"
      },
      "getAssetPrice(address)": {
        "notice": "Returns the asset price in the base currency"
      },
      "getAssetsPrices(address[])": {
        "notice": "Returns a list of prices from a list of assets addresses"
      },
      "getFallbackOracle()": {
        "notice": "Returns the address of the fallback oracle"
      },
      "getSourceOfAsset(address)": {
        "notice": "Returns the address of the source for an asset address"
      },
      "setAssetSources(address[],bytes32[])": {
        "notice": "Sets or replaces price sources of assets"
      },
      "setFallbackOracle(address)": {
        "notice": "Sets the fallback oracle"
      },
      "updatePrices(bytes[])": {
        "notice": "Updates the prices of the assets passed as parameter"
      }
    },
    "notice": "Contract to get asset prices, manage price sources and update the fallback oracle - Use of Chainlink Aggregators as first source of price - If the returned price by a Chainlink aggregator is <= 0, the call is forwarded to a fallback oracle - Owned by the Aave governance",
    "version": 1
  },
  "storageLayout": {
    "storage": [
      {
        "astId": 5414,
        "contract": "contracts/PythOracle.sol:PythOracle",
        "label": "_roles",
        "offset": 0,
        "slot": "0",
        "type": "t_mapping(t_bytes32,t_struct(RoleData)5409_storage)"
      },
      {
        "astId": 8703,
        "contract": "contracts/PythOracle.sol:PythOracle",
        "label": "pyth",
        "offset": 0,
        "slot": "1",
        "type": "t_address"
      },
      {
        "astId": 8715,
        "contract": "contracts/PythOracle.sol:PythOracle",
        "label": "assetsSources",
        "offset": 0,
        "slot": "2",
        "type": "t_mapping(t_address,t_bytes32)"
      },
      {
        "astId": 8718,
        "contract": "contracts/PythOracle.sol:PythOracle",
        "label": "_fallbackOracle",
        "offset": 0,
        "slot": "3",
        "type": "t_contract(IPriceOracleGetter)53755"
      },
      {
        "astId": 8722,
        "contract": "contracts/PythOracle.sol:PythOracle",
        "label": "BASE_CURRENCYS",
        "offset": 0,
        "slot": "4",
        "type": "t_mapping(t_address,t_uint256)"
      }
    ],
    "types": {
      "t_address": {
        "encoding": "inplace",
        "label": "address",
        "numberOfBytes": "20"
      },
      "t_bool": {
        "encoding": "inplace",
        "label": "bool",
        "numberOfBytes": "1"
      },
      "t_bytes32": {
        "encoding": "inplace",
        "label": "bytes32",
        "numberOfBytes": "32"
      },
      "t_contract(IPriceOracleGetter)53755": {
        "encoding": "inplace",
        "label": "contract IPriceOracleGetter",
        "numberOfBytes": "20"
      },
      "t_mapping(t_address,t_bool)": {
        "encoding": "mapping",
        "key": "t_address",
        "label": "mapping(address => bool)",
        "numberOfBytes": "32",
        "value": "t_bool"
      },
      "t_mapping(t_address,t_bytes32)": {
        "encoding": "mapping",
        "key": "t_address",
        "label": "mapping(address => bytes32)",
        "numberOfBytes": "32",
        "value": "t_bytes32"
      },
      "t_mapping(t_address,t_uint256)": {
        "encoding": "mapping",
        "key": "t_address",
        "label": "mapping(address => uint256)",
        "numberOfBytes": "32",
        "value": "t_uint256"
      },
      "t_mapping(t_bytes32,t_struct(RoleData)5409_storage)": {
        "encoding": "mapping",
        "key": "t_bytes32",
        "label": "mapping(bytes32 => struct AccessControl.RoleData)",
        "numberOfBytes": "32",
        "value": "t_struct(RoleData)5409_storage"
      },
      "t_struct(RoleData)5409_storage": {
        "encoding": "inplace",
        "label": "struct AccessControl.RoleData",
        "members": [
          {
            "astId": 5406,
            "contract": "contracts/PythOracle.sol:PythOracle",
            "label": "members",
            "offset": 0,
            "slot": "0",
            "type": "t_mapping(t_address,t_bool)"
          },
          {
            "astId": 5408,
            "contract": "contracts/PythOracle.sol:PythOracle",
            "label": "adminRole",
            "offset": 0,
            "slot": "1",
            "type": "t_bytes32"
          }
        ],
        "numberOfBytes": "64"
      },
      "t_uint256": {
        "encoding": "inplace",
        "label": "uint256",
        "numberOfBytes": "32"
      }
    }
  }
}